:020000004D2889
:1000060083120313881A092887170B287F30870560
:020016000800E0
:1000180083120313881D1328FF30950015284F30CD
:1000280095006830FC00E430FD00FD0B1928FC0B3E
:0600380019280000080079
:10003E0083120313081E2828783087041E30850487
:0C004E002C28873087050130850508004C
:10005A0083120313081C362802308706081C362828
:04006A00332808002F
:10006E0083120313081D4228783087061E3085063A
:08007E00081D42283F2808007C
:1000860083120313881C4C2804308706881C4C28CE
:0400960049280800ED
:10009A00013083160313850086018701FF3088002B
:1000AA0089018312850186018701880189010E3041
:1000BA0083169F000C3083129700073092000C20A1
:0E00CA001F2003202D203720432064286B28A0
:02400E004A2F37
:00000001FF
