:020000009E2D33
:0E000600213083120313FD00FD0B07280800B4
:100014000F3083120313FC004730FD00FD0B102842
:0A002400FC0B10280000000008008B
:06002E00000000000800C4
:1000340083120313D21B2028861121288615521BF4
:100044002528061126280615D21A2A2886102B28B8
:100054008614521A2F28061030280614371834280C
:10006400061635280612861617208612D2193C2841
:1000740086113D2886155219412806114228061575
:10008400D218462886104728861452184B28061082
:100094004C280614371850280616512806128616BE
:1000A40017208612371C58280A20592803200800D4
:0E00B400F201F101F001F801F3010030080043
:1000C2007B15FB1F6B280130F300F201F101F001F7
:0800D200FA0DF20CFF300800EA
:0800DA00FA1FF21300300800C8
:1000E200FB14FB1F7B28FF30F300F200F100F0004D
:0800F200FA0DF20CFF300800CA
:1000FA0083120313FB017308031D77080319D4281D
:10010A0072087606FA007708F3077E30031C9128F6
:10011A00F3020318D7289428F302031CDA2872087A
:10012A00F8007108FC007008FD00F817F6170310B4
:10013A00F201F101F0011830A0007D1CAE2874080C
:10014A00F00775080318750FF10776080318760F7C
:10015A00F207F20CF10CF00CF80CFC0CFD0C03107D
:10016A00A00BA228F21BBE28F80DF00DF10DF20D1E
:10017A00F3037B1B701CD028F81FD028F00A031940
:10018A00F10A0319F20A031DD028F20CF10CF00C43
:10019A00F30A0319D728FA1FF2130030DC280130BA
:1001AA005A20DC2802307120DC280430612000004B
:0201BA0008003B
:1001BC00831203135008F2007208F100F20A51087E
:1001CC00F000D10A700884000008F0007108840067
:1001DC00700880007108840000080319F628E228D2
:0601EC005008F0000800BD
:1001F200A0017208031D0E297108F2007008F100B7
:10020200F001A0157208031D0E297108F200F10118
:10021200A0112016720803191C292008F302031DDD
:10022200031C20290310F21B2429F00DF10DF20DFD
:10023200F30B142920290130FC005A20272902300F
:0E024200FC00612027290430FC006D2008001C
:100250008312031337105008D2001A2037140800F5
:1002600083120313FD01F8017008031900347406AA
:10027000FA00FA1BFD09FB01F41F4029F409F40AF6
:10028000F01F4429F009F00A70087404FA00FA1B00
:1002900068297408F802F00D700DF80D7408F8075D
:1002A000F00D0630FC00700DF80D74087018F8029F
:1002B000701CF807F00DFC0B5329701CF8077B1815
:1002C0007629FD1F0034F009F00AF809F80A003415
:1002D000F41F7329F01B70297008F800F0016129E0
:1002E000F001F00A0034F009FB0A4929F80A740801
:1002F0007802031D6129F801F00AF01F6129FF341B
:020300000800F3
:06030200FB15FF300800AE
:1003080083120313FA017308031D7A147708031D77
:10031800FA147A080319D029033A03199B297A1881
:100328009829F61FCE29CC29F21FCC29CE2972088C
:100338008039FA00F21376088039F6137A06031921
:10034800A9297A080319CC29CE2977087302031939
:10035800B029031CC429C829760872020319B729D1
:10036800031CC429C829750871020319BE29031C76
:10037800C429C829740870020319D0290318C82988
:10038800FA080319CE29CC29FA080319CC29CE2951
:1003980003140800031008000314031508000800DC
:1003A80083120313CE01CF014308CA004408CB00CF
:1003B8004508CC004608CD004D08FF3A031DEE293C
:1003C8004C08FF3A031DEE294B08FF3A031DEE299E
:1003D8004A08FF3A031DF8294708D0002330D10006
:1003E800DE200330F000D12B0130C800CC1F072AD3
:1003F80080304C06F0007008CC00C80A470884001A
:100408002D308000C70A0030F0004D06031D162A63
:1004180070084C06031D162A70084B06031D162A81
:100428004A08003A031D1F2A4708D0002130D1008E
:10043800DE20F001D12B4D08FF3A031D2D2A4C0870
:10044800003A031D2D2A4B08003A031D2D2A4A089D
:10045800003A031D372A4708D0002730D100DE2094
:100468004808F000D12B0030F4000030F5000030CF
:10047800F6007F30F7004A08F0004B08F1004C08FE
:10048800F2004D08F3008421013003180030F00019
:10049800700803196A2A4A08F0004B08F1004C0852
:1004A800F2004D08F3000030F4000030F500203071
:1004B800F6008230F7007D207008CA007108CB0072
:1004C8007208CC007308CD00CF03372A0030F4003F
:1004D8000030F5002030F6008230F7004A08F000BE
:1004E8004B08F1004C08F2004D08F300842101305C
:1004F800031C0030F000700803199D2A4A08F00018
:100508004B08F1004C08F2004D08F300CD30F40020
:10051800CC30F5004C30F6007B30F7007D207008B9
:10052800CA007108CB007208CC007308CD00CF0A4E
:100538006A2AFF304A05F800FF304B05F9007F3082
:100548004C05FA0000304D05FB007808F4007908E6
:10055800F5007A08F6007B08F700F40DF50DF60DA6
:10056800F70D741000304A05F00000304B05F1001B
:1005780000304C05F200FF304D05F3007008CA004A
:100588007108CB007208CC007308CD0074084A04C7
:10059800F00075084B04F10076084C04F200770867
:1005A8004D04F3007008CA007108CB007208CC0033
:1005B8007308CD007F304D02F0007008C90001308B
:1005C800CD007008F4004A08F0004B08F1004C0810
:1005D800F2004D08F30074080319F92AF00DF10D23
:1005E800F20DF30D7010FF3EF02A7008CA00710872
:1005F800CB007208CC007308CD004D08303EF000E7
:100608004708840070088000C70A80304F06F00051
:100618008030013A7002031C1A2B8030063AF00031
:1006280080304F067002031C1A2B212B47088400C8
:100638002E308000C70A0130CE000630C9004908B4
:10064800003A03197F2BCD014A08F0004B08F1004E
:100658004C08F2004D08F300F00DF10DF20DF30D0A
:100668007010F00DF10DF20DF30D70104A08F0073F
:100678004B0803184B0FF1074C0803184C0FF207EF
:100688004D0803184D0FF3077008CA007108CB0016
:100698007208CC007308CD004A08F0004B08F1003E
:1006A8004C08F2004D08F300F00DF10DF20DF30DBA
:1006B80070107008CA007108CB007208CC0073086B
:1006C800CD004D08303EF0004708840070088000D7
:1006D800C70A4E08003A031D7D2BCF034F08003A86
:1006E800031D7D2B470884002E308000C70A013087
:1006F800CE00C903232BFF30470784000008303A97
:10070800031D882BC7037F2BFF3047078400000891
:100718002E3A031D902BC7034F08003A0319CD2B1F
:100728004708840065308000C70A80304F06F00013
:100738008030003A70020318A92B470884002D3036
:100748008000C70A4F08003CCF004F08C90080301E
:10075800093AF00080304F0670020318BF2B0A30A8
:10076800F4004908F00030213030F00747088400D1
:1007780070088000C70A0A30F4004908F0003021E8
:100788007808F0003030F0074708840070088000CF
:0C079800C70A470884008001F001080037
:1007A400831203137408003A031DED2B7508003AF5
:1007B400031DED2B7608003A031DED2B7708003A54
:1007C400031DED2BFF30F000FF30F1007F30F2000D
:1007D400FF30F300882C83120313770803197C2C51
:1007E400730803197F2C720876068039FA00F21711
:1007F400F617A0017208F8007108FC007008FD00EB
:100804007408FD027508031C750FFC027608031CAE
:10081400760FF802F801FC01FD01031C182C0310EB
:10082400F20CF10CF00CF80C0130A0007708F30284
:10083400031C222C7E302007F3070318822C272C5C
:100844007E302007F307031C852C1830FA07FD0DB2
:10085400FC0DF80DF00DF10DF20DA00D7408F00271
:100864007508031C750FF1027608031C760FF2025B
:10087400760DA004201C402C7D144B2C7408F0072A
:1008840075080318750FF10776080318760AF2073E
:100894007D10FA031F307A05031D292C7B1B7D1C58
:1008A400722C0310F00DF10DF20DA00D7408F0027E
:1008B4007508031C750FF1027608031C760FF2020B
:1008C400760D20040139FD070318FC0A0319F80A00
:1008D400031D722CF80CFC0CFD0CF30A0319822C7A
:1008E400FA1FF8137808F2007C08F1007D08F00084
:1008F4000030872C01308121872C02305A20872C2C
:0E09040004307120872C0830612000000800AC
:100912009B2C803083120313C300AE2CC030C30063
:10092200AE2C9430C300AE2CD430C300AE2C803039
:10093200C300AE2C831203134308013A03198A2C15
:100942004308023A03198F2C4308033A0319922CE5
:100952004308043A0319952C982C4403F0004308E9
:10096200F0077008C3007008D2001A203710C601C1
:1009720046084507840000080319C72C46084507A6
:1009820084000008D0002821C60AB92C37140800B8
:10099200831203137008F8007108F000F101F201EC
:1009A200F301FB01FC019630F300FA017008F1003B
:0C09B2007808F000F801F201F9200800BC
:0E09BE008312031339088A00380882000800EB
:1009CC00831203131F151F1DEC2CE92C1E08F100BC
:0E09DC00F00183161E08F0040030F10408003C
:1009EA008316031386120612061086100611861144
:1009FA0083128612061286110611861006100A2024
:100A0A000A200A20861406148616172086120A203F
:100A1A008616172086120A208616172086120A20A2
:100A2A0006108616172086120A20861617208612A6
:100A3A00861086158616172086120A208611061435
:100A4A0086161720861206108616172086120A2086
:100A5A0086161720861206148616172086120A2072
:100A6A000610861617208612861506158614061491
:0C0A7A008616172086120A203714080088
:100A8600831203133A08F0003B08F100C924003032
:100A9600F4000030F5002030F6008130F7007D20AC
:100AA6000030F400C030F5007F30F6008830F700E3
:100AB600D2230030F4000030F5004830F6008530CF
:100AC600F7007D207008C3007108C4007208C500D5
:100AD6007308C6003C30C700D4210130C300013082
:100AE600C4003030C50089240230C3000130C40080
:100AF6003C30C50089240230C3000730C4002B30C7
:060B0600C500892408006F
:100B0C004130831203139F00CE3083169F000130B7
:080B1C00850083128501080029
:100B2400DF248A110A128000840AB80A0319B90A58
:080B3400F003031D922D0800DF
:100B3C00E0250230831603138700013085008625DB
:100B4C00F5240130D2001A200C30D2001A20E624F1
:100B5C0070088312BA007108BB0043250B30FB00F0
:100B6C002630FC005D30FD00FD0BBA2DFC0BBA2DC0
:0C0B7C00FB0BBA2D00000000AD2DC32DB6
:100BC00021308400163083120313F000C930B800BE
:080BD0000530B9009225080070
:040B920030340034C7
:080B96004E3461344E3400348A
:080B9E0049344E3446340034A2
:0A0BA600203443342034203400349E
:0E0BB000543465346D3470343A3420340034DB
:02400E004A2F37
:00000001FF
