:02000000602876
:10000600831203131F151F1D092806281E08F10059
:0E001600F00183161E08F0040030F10408000B
:100024000C30831203139D00F930831692000430C0
:0600340083129200080097
:02003A000800BC
:10003C00831203132508003C031D26282408143CB6
:10004C00031C2A289B015F2800302502031D302841
:10005C00153024020130031C0030F10071081C3CE7
:10006C00031C3B2840309B005F2800302502031DF9
:10007C0041281D3024020130031C0030F1007108AE
:10008C00253C031C4C2880309B005F280030250247
:10009C00031D5228263024020130031C0030F100CD
:1000AC0071082E3C031C5D28C0309B005F28FF307C
:0400BC009B0008009D
:1000C0000230831603138700013085008710122049
:1000D000032070088312A2007108A3007008A40016
:1000E0007108A5001D202208A4002308A5001E20D9
:1000F0000B30FB002630FC005D30FD00FD0B7E2840
:10010000FC0B7E28FB0B7E28000000006828872857
:02400E004A2F37
:00000001FF
